{
  "contractName": "Election",
  "abi": [
    {
      "inputs": [],
      "payable": false,
      "stateMutability": "nonpayable",
      "type": "constructor"
    },
    {
      "anonymous": false,
      "inputs": [
        {
          "indexed": false,
          "internalType": "uint256",
          "name": "nid",
          "type": "uint256"
        },
        {
          "indexed": false,
          "internalType": "string",
          "name": "name",
          "type": "string"
        },
        {
          "indexed": false,
          "internalType": "string",
          "name": "email",
          "type": "string"
        },
        {
          "indexed": false,
          "internalType": "string",
          "name": "pass",
          "type": "string"
        }
      ],
      "name": "setadmin",
      "type": "event"
    },
    {
      "anonymous": false,
      "inputs": [
        {
          "indexed": false,
          "internalType": "uint256",
          "name": "id",
          "type": "uint256"
        },
        {
          "indexed": false,
          "internalType": "string",
          "name": "name",
          "type": "string"
        },
        {
          "indexed": false,
          "internalType": "uint256",
          "name": "_age",
          "type": "uint256"
        },
        {
          "indexed": false,
          "internalType": "string",
          "name": "_city",
          "type": "string"
        },
        {
          "indexed": false,
          "internalType": "uint256",
          "name": "voteCount",
          "type": "uint256"
        }
      ],
      "name": "setcandidate",
      "type": "event"
    },
    {
      "anonymous": false,
      "inputs": [
        {
          "indexed": false,
          "internalType": "uint256",
          "name": "nid",
          "type": "uint256"
        },
        {
          "indexed": false,
          "internalType": "string",
          "name": "name",
          "type": "string"
        },
        {
          "indexed": false,
          "internalType": "string",
          "name": "email",
          "type": "string"
        },
        {
          "indexed": false,
          "internalType": "uint256",
          "name": "age",
          "type": "uint256"
        },
        {
          "indexed": false,
          "internalType": "string",
          "name": "city",
          "type": "string"
        },
        {
          "indexed": false,
          "internalType": "string",
          "name": "pass",
          "type": "string"
        }
      ],
      "name": "setvoter",
      "type": "event"
    },
    {
      "anonymous": false,
      "inputs": [
        {
          "indexed": true,
          "internalType": "uint256",
          "name": "_candidateId",
          "type": "uint256"
        }
      ],
      "name": "votedEvent",
      "type": "event"
    },
    {
      "constant": true,
      "inputs": [
        {
          "internalType": "uint256",
          "name": "",
          "type": "uint256"
        }
      ],
      "name": "admin",
      "outputs": [
        {
          "internalType": "uint256",
          "name": "nid",
          "type": "uint256"
        },
        {
          "internalType": "string",
          "name": "name",
          "type": "string"
        },
        {
          "internalType": "string",
          "name": "email",
          "type": "string"
        },
        {
          "internalType": "string",
          "name": "pass",
          "type": "string"
        }
      ],
      "payable": false,
      "stateMutability": "view",
      "type": "function"
    },
    {
      "constant": true,
      "inputs": [],
      "name": "adminAddress",
      "outputs": [
        {
          "internalType": "address",
          "name": "",
          "type": "address"
        }
      ],
      "payable": false,
      "stateMutability": "view",
      "type": "function"
    },
    {
      "constant": true,
      "inputs": [
        {
          "internalType": "uint256",
          "name": "",
          "type": "uint256"
        }
      ],
      "name": "candidates",
      "outputs": [
        {
          "internalType": "uint256",
          "name": "id",
          "type": "uint256"
        },
        {
          "internalType": "string",
          "name": "name",
          "type": "string"
        },
        {
          "internalType": "uint256",
          "name": "age",
          "type": "uint256"
        },
        {
          "internalType": "string",
          "name": "city",
          "type": "string"
        },
        {
          "internalType": "uint256",
          "name": "voteCount",
          "type": "uint256"
        }
      ],
      "payable": false,
      "stateMutability": "view",
      "type": "function"
    },
    {
      "constant": true,
      "inputs": [],
      "name": "candidatesCount",
      "outputs": [
        {
          "internalType": "uint256",
          "name": "",
          "type": "uint256"
        }
      ],
      "payable": false,
      "stateMutability": "view",
      "type": "function"
    },
    {
      "constant": true,
      "inputs": [],
      "name": "totalAdminCount",
      "outputs": [
        {
          "internalType": "uint256",
          "name": "",
          "type": "uint256"
        }
      ],
      "payable": false,
      "stateMutability": "view",
      "type": "function"
    },
    {
      "constant": true,
      "inputs": [],
      "name": "totalVoterCount",
      "outputs": [
        {
          "internalType": "uint256",
          "name": "",
          "type": "uint256"
        }
      ],
      "payable": false,
      "stateMutability": "view",
      "type": "function"
    },
    {
      "constant": true,
      "inputs": [],
      "name": "totalvoteCount",
      "outputs": [
        {
          "internalType": "uint256",
          "name": "",
          "type": "uint256"
        }
      ],
      "payable": false,
      "stateMutability": "view",
      "type": "function"
    },
    {
      "constant": true,
      "inputs": [
        {
          "internalType": "address",
          "name": "",
          "type": "address"
        }
      ],
      "name": "votedvoterlist",
      "outputs": [
        {
          "internalType": "bool",
          "name": "",
          "type": "bool"
        }
      ],
      "payable": false,
      "stateMutability": "view",
      "type": "function"
    },
    {
      "constant": true,
      "inputs": [
        {
          "internalType": "uint256",
          "name": "",
          "type": "uint256"
        }
      ],
      "name": "voter",
      "outputs": [
        {
          "internalType": "uint256",
          "name": "nid",
          "type": "uint256"
        },
        {
          "internalType": "string",
          "name": "name",
          "type": "string"
        },
        {
          "internalType": "string",
          "name": "email",
          "type": "string"
        },
        {
          "internalType": "uint256",
          "name": "age",
          "type": "uint256"
        },
        {
          "internalType": "string",
          "name": "city",
          "type": "string"
        },
        {
          "internalType": "string",
          "name": "pass",
          "type": "string"
        }
      ],
      "payable": false,
      "stateMutability": "view",
      "type": "function"
    },
    {
      "constant": true,
      "inputs": [
        {
          "internalType": "address",
          "name": "",
          "type": "address"
        }
      ],
      "name": "voters",
      "outputs": [
        {
          "internalType": "bool",
          "name": "",
          "type": "bool"
        }
      ],
      "payable": false,
      "stateMutability": "view",
      "type": "function"
    },
    {
      "constant": false,
      "inputs": [
        {
          "internalType": "string",
          "name": "_name",
          "type": "string"
        },
        {
          "internalType": "uint256",
          "name": "_age",
          "type": "uint256"
        },
        {
          "internalType": "string",
          "name": "_city",
          "type": "string"
        }
      ],
      "name": "addCandidate",
      "outputs": [],
      "payable": false,
      "stateMutability": "nonpayable",
      "type": "function"
    },
    {
      "constant": false,
      "inputs": [
        {
          "internalType": "uint256",
          "name": "_candidateId",
          "type": "uint256"
        }
      ],
      "name": "vote",
      "outputs": [],
      "payable": false,
      "stateMutability": "nonpayable",
      "type": "function"
    },
    {
      "constant": false,
      "inputs": [
        {
          "internalType": "uint256",
          "name": "_nid",
          "type": "uint256"
        },
        {
          "internalType": "string",
          "name": "_name",
          "type": "string"
        },
        {
          "internalType": "string",
          "name": "_email",
          "type": "string"
        },
        {
          "internalType": "uint256",
          "name": "_age",
          "type": "uint256"
        },
        {
          "internalType": "string",
          "name": "_city",
          "type": "string"
        },
        {
          "internalType": "string",
          "name": "_pass",
          "type": "string"
        }
      ],
      "name": "setvoterinfo",
      "outputs": [],
      "payable": false,
      "stateMutability": "nonpayable",
      "type": "function"
    },
    {
      "constant": false,
      "inputs": [
        {
          "internalType": "string",
          "name": "_name",
          "type": "string"
        },
        {
          "internalType": "string",
          "name": "_email",
          "type": "string"
        },
        {
          "internalType": "string",
          "name": "_pass",
          "type": "string"
        }
      ],
      "name": "setadmininfo",
      "outputs": [],
      "payable": false,
      "stateMutability": "nonpayable",
      "type": "function"
    }
  ],
  "bytecode": "0x608060405260006006553480156200001657600080fd5b50620000956040518060400160405280600881526020017f496674656b686172000000000000000000000000000000000000000000000000815250601b6040518060400160405280600881526020017f486f6e677368616e0000000000000000000000000000000000000000000000008152506200054460201b60201c565b620001136040518060400160405280600581526020017f536179656d000000000000000000000000000000000000000000000000000000815250601c6040518060400160405280600781526020017f57756368616e67000000000000000000000000000000000000000000000000008152506200054460201b60201c565b620002006130396040518060400160405280600881526020017f73686166617965740000000000000000000000000000000000000000000000008152506040518060400160405280601281526020017f736861666179657440676d61696c2e636f6d000000000000000000000000000081525060186040518060400160405280600681526020017f48616e6b6f7500000000000000000000000000000000000000000000000000008152506040518060400160405280600381526020017f31323300000000000000000000000000000000000000000000000000000000008152506200072360201b60201c565b620002ed61303a6040518060400160405280600581526020017f6e6162696c0000000000000000000000000000000000000000000000000000008152506040518060400160405280600f81526020017f6e6162696c40676d61696c2e636f6d000000000000000000000000000000000081525060196040518060400160405280600881526020017f486f6e677368616e0000000000000000000000000000000000000000000000008152506040518060400160405280600381526020017f31323300000000000000000000000000000000000000000000000000000000008152506200072360201b60201c565b620003da61303b6040518060400160405280600381526020017f6a6f7900000000000000000000000000000000000000000000000000000000008152506040518060400160405280600d81526020017f6a6f7940676d61696c2e636f6d00000000000000000000000000000000000000815250601a6040518060400160405280600781526020017f57756368616e67000000000000000000000000000000000000000000000000008152506040518060400160405280600381526020017f31323300000000000000000000000000000000000000000000000000000000008152506200072360201b60201c565b6200048c6040518060400160405280600881526020017f73686166617965740000000000000000000000000000000000000000000000008152506040518060400160405280601281526020017f736861666179657440676d61696c2e636f6d00000000000000000000000000008152506040518060400160405280600381526020017f313233000000000000000000000000000000000000000000000000000000000081525062000a1160201b60201c565b6200053e6040518060400160405280600e81526020017f6368656e206a696e676c69616e670000000000000000000000000000000000008152506040518060400160405280601781526020017f6368656e6a696e676c69616e6740676d61696c2e636f6d0000000000000000008152506040518060400160405280600381526020017f313233000000000000000000000000000000000000000000000000000000000081525062000a1160201b60201c565b62000d02565b6004600081548092919060010191905055506040518060a0016040528060045481526020018481526020018381526020018281526020016000815250600360006004548152602001908152602001600020600082015181600001556020820151816001019080519060200190620005bd92919062000c53565b50604082015181600201556060820151816003019080519060200190620005e692919062000c53565b50608082015181600401559050507f40000bb94ed8bc43b3aef7991c6598cfd48b6733047c3e65e1d520c6bc1b1a9c6004548484846000604051808681526020018060200185815260200180602001848152602001838103835287818151815260200191508051906020019080838360005b838110156200067557808201518184015260208101905062000658565b50505050905090810190601f168015620006a35780820380516001836020036101000a031916815260200191505b50838103825285818151815260200191508051906020019080838360005b83811015620006de578082015181840152602081019050620006c1565b50505050905090810190601f1680156200070c5780820380516001836020036101000a031916815260200191505b5097505050505050505060405180910390a1505050565b6001600081548092919060010191905055506040518060c00160405280878152602001868152602001858152602001848152602001838152602001828152506007600060015481526020019081526020016000206000820151816000015560208201518160010190805190602001906200079f92919062000c53565b506040820151816002019080519060200190620007be92919062000c53565b50606082015181600301556080820151816004019080519060200190620007e792919062000c53565b5060a08201518160050190805190602001906200080692919062000c53565b509050507f240a3fe38b855c95c587b35277fffa5701e8b3b967bdfdd9eac87090e83b146d868686868686604051808781526020018060200180602001868152602001806020018060200185810385528a818151815260200191508051906020019080838360005b838110156200088b5780820151818401526020810190506200086e565b50505050905090810190601f168015620008b95780820380516001836020036101000a031916815260200191505b50858103845289818151815260200191508051906020019080838360005b83811015620008f4578082015181840152602081019050620008d7565b50505050905090810190601f168015620009225780820380516001836020036101000a031916815260200191505b50858103835287818151815260200191508051906020019080838360005b838110156200095d57808201518184015260208101905062000940565b50505050905090810190601f1680156200098b5780820380516001836020036101000a031916815260200191505b50858103825286818151815260200191508051906020019080838360005b83811015620009c6578082015181840152602081019050620009a9565b50505050905090810190601f168015620009f45780820380516001836020036101000a031916815260200191505b509a505050505050505050505060405180910390a1505050505050565b600860008154809291906001019190505550604051806080016040528060085481526020018481526020018381526020018281525060096000600854815260200190815260200160002060008201518160000155602082015181600101908051906020019062000a8392919062000c53565b50604082015181600201908051906020019062000aa292919062000c53565b50606082015181600301908051906020019062000ac192919062000c53565b509050507fa6364e36d7661d37df64d0b0b870bc3c3e8ce8eac64358f668fbb5c581d0d05460085484848460405180858152602001806020018060200180602001848103845287818151815260200191508051906020019080838360005b8381101562000b3c57808201518184015260208101905062000b1f565b50505050905090810190601f16801562000b6a5780820380516001836020036101000a031916815260200191505b50848103835286818151815260200191508051906020019080838360005b8381101562000ba557808201518184015260208101905062000b88565b50505050905090810190601f16801562000bd35780820380516001836020036101000a031916815260200191505b50848103825285818151815260200191508051906020019080838360005b8381101562000c0e57808201518184015260208101905062000bf1565b50505050905090810190601f16801562000c3c5780820380516001836020036101000a031916815260200191505b5097505050505050505060405180910390a1505050565b828054600181600116156101000203166002900490600052602060002090601f016020900481019282601f1062000c9657805160ff191683800117855562000cc7565b8280016001018555821562000cc7579182015b8281111562000cc657825182559160200191906001019062000ca9565b5b50905062000cd6919062000cda565b5090565b62000cff91905b8082111562000cfb57600081600090555060010162000ce1565b5090565b90565b611c6a8062000d126000396000f3fe608060405234801561001057600080fd5b50600436106100ea5760003560e01c80639de13ed01161008c578063d599a1c611610066578063d599a1c6146109cd578063e74f925214610b53578063f102291d14610caf578063fc6f946814610ccd576100ea565b80639de13ed01461071c578063a3ec138d14610778578063ab8ed1ba146107d4576100ea565b80633477ee2e116100c85780633477ee2e146103cf57806335ee44c8146104f75780633eb5574c146106e05780636f71e065146106fe576100ea565b80630121b93f146100ef57806320764f351461011d5780632d35a8a2146103b1575b600080fd5b61011b6004803603602081101561010557600080fd5b8101908080359060200190929190505050610d17565b005b6103af600480360360c081101561013357600080fd5b81019080803590602001909291908035906020019064010000000081111561015a57600080fd5b82018360208201111561016c57600080fd5b8035906020019184600183028401116401000000008311171561018e57600080fd5b91908080601f016020809104026020016040519081016040528093929190818152602001838380828437600081840152601f19601f820116905080830192505050505050509192919290803590602001906401000000008111156101f157600080fd5b82018360208201111561020357600080fd5b8035906020019184600183028401116401000000008311171561022557600080fd5b91908080601f016020809104026020016040519081016040528093929190818152602001838380828437600081840152601f19601f820116905080830192505050505050509192919290803590602001909291908035906020019064010000000081111561029257600080fd5b8201836020820111156102a457600080fd5b803590602001918460018302840111640100000000831117156102c657600080fd5b91908080601f016020809104026020016040519081016040528093929190818152602001838380828437600081840152601f19601f8201169050808301925050505050505091929192908035906020019064010000000081111561032957600080fd5b82018360208201111561033b57600080fd5b8035906020019184600183028401116401000000008311171561035d57600080fd5b91908080601f016020809104026020016040519081016040528093929190818152602001838380828437600081840152601f19601f820116905080830192505050505050509192919290505050610e37565b005b6103b9611111565b6040518082815260200191505060405180910390f35b6103fb600480360360208110156103e557600080fd5b8101908080359060200190929190505050611117565b604051808681526020018060200185815260200180602001848152602001838103835287818151815260200191508051906020019080838360005b83811015610451578082015181840152602081019050610436565b50505050905090810190601f16801561047e5780820380516001836020036101000a031916815260200191505b50838103825285818151815260200191508051906020019080838360005b838110156104b757808201518184015260208101905061049c565b50505050905090810190601f1680156104e45780820380516001836020036101000a031916815260200191505b5097505050505050505060405180910390f35b6106de6004803603606081101561050d57600080fd5b810190808035906020019064010000000081111561052a57600080fd5b82018360208201111561053c57600080fd5b8035906020019184600183028401116401000000008311171561055e57600080fd5b91908080601f016020809104026020016040519081016040528093929190818152602001838380828437600081840152601f19601f820116905080830192505050505050509192919290803590602001906401000000008111156105c157600080fd5b8201836020820111156105d357600080fd5b803590602001918460018302840111640100000000831117156105f557600080fd5b91908080601f016020809104026020016040519081016040528093929190818152602001838380828437600081840152601f19601f8201169050808301925050505050505091929192908035906020019064010000000081111561065857600080fd5b82018360208201111561066a57600080fd5b8035906020019184600183028401116401000000008311171561068c57600080fd5b91908080601f016020809104026020016040519081016040528093929190818152602001838380828437600081840152601f19601f82011690508083019250505050505050919291929050505061127d565b005b6106e86114b0565b6040518082815260200191505060405180910390f35b6107066114b6565b6040518082815260200191505060405180910390f35b61075e6004803603602081101561073257600080fd5b81019080803573ffffffffffffffffffffffffffffffffffffffff1690602001909291905050506114bc565b604051808215151515815260200191505060405180910390f35b6107ba6004803603602081101561078e57600080fd5b81019080803573ffffffffffffffffffffffffffffffffffffffff1690602001909291905050506114dc565b604051808215151515815260200191505060405180910390f35b610800600480360360208110156107ea57600080fd5b81019080803590602001909291905050506114fc565b604051808781526020018060200180602001868152602001806020018060200185810385528a818151815260200191508051906020019080838360005b8381101561085857808201518184015260208101905061083d565b50505050905090810190601f1680156108855780820380516001836020036101000a031916815260200191505b50858103845289818151815260200191508051906020019080838360005b838110156108be5780820151818401526020810190506108a3565b50505050905090810190601f1680156108eb5780820380516001836020036101000a031916815260200191505b50858103835287818151815260200191508051906020019080838360005b83811015610924578082015181840152602081019050610909565b50505050905090810190601f1680156109515780820380516001836020036101000a031916815260200191505b50858103825286818151815260200191508051906020019080838360005b8381101561098a57808201518184015260208101905061096f565b50505050905090810190601f1680156109b75780820380516001836020036101000a031916815260200191505b509a505050505050505050505060405180910390f35b6109f9600480360360208110156109e357600080fd5b8101908080359060200190929190505050611798565b60405180858152602001806020018060200180602001848103845287818151815260200191508051906020019080838360005b83811015610a47578082015181840152602081019050610a2c565b50505050905090810190601f168015610a745780820380516001836020036101000a031916815260200191505b50848103835286818151815260200191508051906020019080838360005b83811015610aad578082015181840152602081019050610a92565b50505050905090810190601f168015610ada5780820380516001836020036101000a031916815260200191505b50848103825285818151815260200191508051906020019080838360005b83811015610b13578082015181840152602081019050610af8565b50505050905090810190601f168015610b405780820380516001836020036101000a031916815260200191505b5097505050505050505060405180910390f35b610cad60048036036060811015610b6957600080fd5b8101908080359060200190640100000000811115610b8657600080fd5b820183602082011115610b9857600080fd5b80359060200191846001830284011164010000000083111715610bba57600080fd5b91908080601f016020809104026020016040519081016040528093929190818152602001838380828437600081840152601f19601f8201169050808301925050505050505091929192908035906020019092919080359060200190640100000000811115610c2757600080fd5b820183602082011115610c3957600080fd5b80359060200191846001830284011164010000000083111715610c5b57600080fd5b91908080601f016020809104026020016040519081016040528093929190818152602001838380828437600081840152601f19601f820116905080830192505050505050509192919290505050611990565b005b610cb7611b65565b6040518082815260200191505060405180910390f35b610cd5611b6b565b604051808273ffffffffffffffffffffffffffffffffffffffff1673ffffffffffffffffffffffffffffffffffffffff16815260200191505060405180910390f35b600260003373ffffffffffffffffffffffffffffffffffffffff1673ffffffffffffffffffffffffffffffffffffffff16815260200190815260200160002060009054906101000a900460ff1615610d6e57600080fd5b600081118015610d8057506004548111155b610d8957600080fd5b6001600260003373ffffffffffffffffffffffffffffffffffffffff1673ffffffffffffffffffffffffffffffffffffffff16815260200190815260200160002060006101000a81548160ff0219169083151502179055506003600082815260200190815260200160002060040160008154809291906001019190505550807ffff3c900d938d21d0990d786e819f29b8d05c1ef587b462b939609625b684b1660405160405180910390a250565b6001600081548092919060010191905055506040518060c0016040528087815260200186815260200185815260200184815260200183815260200182815250600760006001548152602001908152602001600020600082015181600001556020820151816001019080519060200190610eb1929190611b90565b506040820151816002019080519060200190610ece929190611b90565b50606082015181600301556080820151816004019080519060200190610ef5929190611b90565b5060a0820151816005019080519060200190610f12929190611b90565b509050507f240a3fe38b855c95c587b35277fffa5701e8b3b967bdfdd9eac87090e83b146d868686868686604051808781526020018060200180602001868152602001806020018060200185810385528a818151815260200191508051906020019080838360005b83811015610f95578082015181840152602081019050610f7a565b50505050905090810190601f168015610fc25780820380516001836020036101000a031916815260200191505b50858103845289818151815260200191508051906020019080838360005b83811015610ffb578082015181840152602081019050610fe0565b50505050905090810190601f1680156110285780820380516001836020036101000a031916815260200191505b50858103835287818151815260200191508051906020019080838360005b83811015611061578082015181840152602081019050611046565b50505050905090810190601f16801561108e5780820380516001836020036101000a031916815260200191505b50858103825286818151815260200191508051906020019080838360005b838110156110c75780820151818401526020810190506110ac565b50505050905090810190601f1680156110f45780820380516001836020036101000a031916815260200191505b509a505050505050505050505060405180910390a1505050505050565b60045481565b6003602052806000526040600020600091509050806000015490806001018054600181600116156101000203166002900480601f0160208091040260200160405190810160405280929190818152602001828054600181600116156101000203166002900480156111c95780601f1061119e576101008083540402835291602001916111c9565b820191906000526020600020905b8154815290600101906020018083116111ac57829003601f168201915b505050505090806002015490806003018054600181600116156101000203166002900480601f01602080910402602001604051908101604052809291908181526020018280546001816001161561010002031660029004801561126d5780601f106112425761010080835404028352916020019161126d565b820191906000526020600020905b81548152906001019060200180831161125057829003601f168201915b5050505050908060040154905085565b60086000815480929190600101919050555060405180608001604052806008548152602001848152602001838152602001828152506009600060085481526020019081526020016000206000820151816000015560208201518160010190805190602001906112ed929190611b90565b50604082015181600201908051906020019061130a929190611b90565b506060820151816003019080519060200190611327929190611b90565b509050507fa6364e36d7661d37df64d0b0b870bc3c3e8ce8eac64358f668fbb5c581d0d05460085484848460405180858152602001806020018060200180602001848103845287818151815260200191508051906020019080838360005b838110156113a0578082015181840152602081019050611385565b50505050905090810190601f1680156113cd5780820380516001836020036101000a031916815260200191505b50848103835286818151815260200191508051906020019080838360005b838110156114065780820151818401526020810190506113eb565b50505050905090810190601f1680156114335780820380516001836020036101000a031916815260200191505b50848103825285818151815260200191508051906020019080838360005b8381101561146c578082015181840152602081019050611451565b50505050905090810190601f1680156114995780820380516001836020036101000a031916815260200191505b5097505050505050505060405180910390a1505050565b60065481565b60015481565b60056020528060005260406000206000915054906101000a900460ff1681565b60026020528060005260406000206000915054906101000a900460ff1681565b6007602052806000526040600020600091509050806000015490806001018054600181600116156101000203166002900480601f0160208091040260200160405190810160405280929190818152602001828054600181600116156101000203166002900480156115ae5780601f10611583576101008083540402835291602001916115ae565b820191906000526020600020905b81548152906001019060200180831161159157829003601f168201915b505050505090806002018054600181600116156101000203166002900480601f01602080910402602001604051908101604052809291908181526020018280546001816001161561010002031660029004801561164c5780601f106116215761010080835404028352916020019161164c565b820191906000526020600020905b81548152906001019060200180831161162f57829003601f168201915b505050505090806003015490806004018054600181600116156101000203166002900480601f0160208091040260200160405190810160405280929190818152602001828054600181600116156101000203166002900480156116f05780601f106116c5576101008083540402835291602001916116f0565b820191906000526020600020905b8154815290600101906020018083116116d357829003601f168201915b505050505090806005018054600181600116156101000203166002900480601f01602080910402602001604051908101604052809291908181526020018280546001816001161561010002031660029004801561178e5780601f106117635761010080835404028352916020019161178e565b820191906000526020600020905b81548152906001019060200180831161177157829003601f168201915b5050505050905086565b6009602052806000526040600020600091509050806000015490806001018054600181600116156101000203166002900480601f01602080910402602001604051908101604052809291908181526020018280546001816001161561010002031660029004801561184a5780601f1061181f5761010080835404028352916020019161184a565b820191906000526020600020905b81548152906001019060200180831161182d57829003601f168201915b505050505090806002018054600181600116156101000203166002900480601f0160208091040260200160405190810160405280929190818152602001828054600181600116156101000203166002900480156118e85780601f106118bd576101008083540402835291602001916118e8565b820191906000526020600020905b8154815290600101906020018083116118cb57829003601f168201915b505050505090806003018054600181600116156101000203166002900480601f0160208091040260200160405190810160405280929190818152602001828054600181600116156101000203166002900480156119865780601f1061195b57610100808354040283529160200191611986565b820191906000526020600020905b81548152906001019060200180831161196957829003601f168201915b5050505050905084565b6004600081548092919060010191905055506040518060a0016040528060045481526020018481526020018381526020018281526020016000815250600360006004548152602001908152602001600020600082015181600001556020820151816001019080519060200190611a07929190611b90565b50604082015181600201556060820151816003019080519060200190611a2e929190611b90565b50608082015181600401559050507f40000bb94ed8bc43b3aef7991c6598cfd48b6733047c3e65e1d520c6bc1b1a9c6004548484846000604051808681526020018060200185815260200180602001848152602001838103835287818151815260200191508051906020019080838360005b83811015611abb578082015181840152602081019050611aa0565b50505050905090810190601f168015611ae85780820380516001836020036101000a031916815260200191505b50838103825285818151815260200191508051906020019080838360005b83811015611b21578082015181840152602081019050611b06565b50505050905090810190601f168015611b4e5780820380516001836020036101000a031916815260200191505b5097505050505050505060405180910390a1505050565b60085481565b6000809054906101000a900473ffffffffffffffffffffffffffffffffffffffff1681565b828054600181600116156101000203166002900490600052602060002090601f016020900481019282601f10611bd157805160ff1916838001178555611bff565b82800160010185558215611bff579182015b82811115611bfe578251825591602001919060010190611be3565b5b509050611c0c9190611c10565b5090565b611c3291905b80821115611c2e576000816000905550600101611c16565b5090565b9056fea265627a7a72315820aa5eb7cf7f12908d26f2cf15711567cc234986142584fb69b0bd56a29e9a588064736f6c63430005100032",
  "source": "pragma solidity >=0.4.2;\r\n\r\ncontract Election {\r\n\r\n    address public adminAddress;\r\n    uint256 public totalVoterCount;\r\n    \r\n    struct Candidate {\r\n        uint256 id;\r\n        string name;\r\n        uint256 age;\r\n        string city;\r\n        uint256 voteCount;\r\n    }\r\n\r\n    // Store accounts that have voted\r\n    mapping(address => bool) public voters;\r\n\r\n    mapping(uint256 => Candidate) public candidates;\r\n    // Store Candidates Count\r\n    uint256 public candidatesCount;\r\n    event votedEvent(uint256 indexed _candidateId);\r\n\r\n    // Constructor\r\n    constructor() public {\r\n\r\n        addCandidate(\"Iftekhar\", 27, \"Hongshan\");\r\n        addCandidate(\"Sayem\", 28, \"Wuchang\");\r\n\r\n        setvoterinfo(12345, \"shafayet\", \"shafayet@gmail.com\", 24, \"Hankou\", \"123\");\r\n        setvoterinfo(12346, \"nabil\", \"nabil@gmail.com\", 25, \"Hongshan\", \"123\");\r\n        setvoterinfo(12347, \"joy\", \"joy@gmail.com\", 26, \"Wuchang\", \"123\");\r\n\r\n        setadmininfo(\"shafayet\", \"shafayet@gmail.com\", \"123\");\r\n        setadmininfo(\"chen jingliang\", \"chenjingliang@gmail.com\", \"123\");\r\n    }\r\n\r\n\r\n    function addCandidate(string memory _name, uint256 _age, string memory _city) public {\r\n        candidatesCount++;\r\n        candidates[candidatesCount] = Candidate(candidatesCount, _name,_age, _city, 0);\r\n        emit setcandidate(candidatesCount, _name,_age,_city, 0);\r\n    }\r\n\r\n    function vote(uint256 _candidateId) public {\r\n        // require that they haven't voted before\r\n        require(!voters[msg.sender]);\r\n\r\n        // require a valid candidate\r\n        require(_candidateId > 0 && _candidateId <= candidatesCount);\r\n\r\n        // record that voter has voted\r\n        voters[msg.sender] = true;\r\n\r\n        // update candidate vote Count\r\n        candidates[_candidateId].voteCount++;\r\n\r\n        // trigger voted event\r\n        emit votedEvent(_candidateId);\r\n    }\r\n\r\n// voter\r\n\r\n    mapping(address => bool) public votedvoterlist;\r\n\r\n    event setcandidate(uint256 id, string name, uint256 _age, string _city, uint256 voteCount);\r\n\r\n    uint256 public totalvoteCount = 0;\r\n\r\n    struct voterInfo {\r\n        uint256 nid;\r\n        string name;\r\n        string email;\r\n        uint256 age;\r\n        string city;\r\n        string pass;\r\n    }\r\n\r\n    mapping(uint256 => voterInfo) public voter;\r\n\r\n    event setvoter(\r\n        uint256 nid,\r\n        string name,\r\n        string email,\r\n        uint256 age,\r\n        string city,\r\n        string pass\r\n    );\r\n\r\n    function setvoterinfo(\r\n        uint256 _nid,\r\n        string memory _name,\r\n        string memory _email,\r\n        uint256 _age,\r\n        string memory _city,\r\n        string memory _pass\r\n    ) public {\r\n        totalVoterCount++;\r\n        voter[totalVoterCount] = voterInfo(_nid, _name, _email, _age, _city, _pass);\r\n        emit setvoter(_nid, _name, _email, _age, _city, _pass);\r\n    }\r\n\r\n//admin \r\nuint256 public totalAdminCount;\r\n    struct adminInfo {\r\n        uint256 nid;\r\n        string name;\r\n        string email;\r\n        string pass;\r\n    }\r\n\r\n    mapping(uint256 => adminInfo) public admin;\r\n\r\n    event setadmin(\r\n        uint256 nid,\r\n        string name,\r\n        string email,\r\n        string pass\r\n    );\r\n\r\n    function setadmininfo(\r\n        string memory _name,\r\n        string memory _email,\r\n        string memory _pass\r\n    ) public {\r\n        totalAdminCount++;\r\n        admin[totalAdminCount] = adminInfo(totalAdminCount, _name, _email, _pass);\r\n        emit setadmin(totalAdminCount, _name, _email, _pass);\r\n    }\r\n}\r\n",
  "sourcePath": "C:\\Users\\Shafayet\\Desktop\\election\\contracts\\Election.sol",
  "compiler": {
    "name": "solc",
    "version": "0.5.16+commit.9c3226ce.Emscripten.clang"
  },
  "schemaVersion": "3.4.16",
  "updatedAt": "2023-12-09T06:31:20.675Z",
  "networkType": "ethereum",
  "devdoc": {
    "methods": {}
  },
  "userdoc": {
    "methods": {}
  }
}